:02000000152CBD
:10000800FF00030E8301C9000A08CC008A017008AA
:10001800A2007108A1007D08A0000408A3008B13AA
:1000280073237008013A031D1A2966237008BB0060
:100038003F08BE004008BF004108C0007008C1006A
:100048003F082606031D1A293E088316A0008312BE
:100058003F088316A10002308312AA008E23C6012E
:1000680041083D06031D1A2940083C06031D1A29AC
:100078003E080F3A031D4228071087143E08063A27
:10008800031D4D28071487102D0803194C28A401B7
:1000980005163E08053A031D1A296400FF30C600FC
:1000A800851207148714C401C5010130AB002B0861
:1000B8002502031C72287C23D101CC237008C200BE
:1000C8007108C3007008C40771080318013EC5070A
:1000D8002B08250603197228AB0A5B282508F400AB
:1000E800F5014408F0004508F100F8237008C20043
:1000F8007108C3004308B4004208B300C401C50135
:100108000130AB002B082502031C9E287C230130FC
:10011800D100CC237008C2007108C3007008C4075E
:1001280071080318013EC5072B08250603199E28E8
:10013800AB0A86282508F400F5014408F0004508B4
:10014800F100F8237008C2007108C3004308B20028
:100158004208B5000719B3280130BA00B428BA011B
:100168008719B9280130B900BA28B9015E30AA0048
:100178008316A001831226088316A100831234086F
:100188008316A200831233088316A3008312320851
:100198008316A400831235088316A50083123A0833
:1001A8008316A600831239088316A7008312300825
:1001B8008316FC0083122F088316FD008E23071672
:1001C8008716AB012A03D0002B085002031CF8281D
:1001D8002B08A03E84000008D100C2232B0850063B
:1001E8000319F828AB0AE6283C08D100C2233D08C9
:1001F800D100C2230430FC00E430FD00FD0B0229CD
:10020800FC0B022900002D08003A031D1729AB0139
:100218002B08A03E8400203080002B085F3A031989
:100228001729AB0A0C290712871285168B17220883
:10023800F0002108F1002008FD00230884004C0884
:0C0248008A00490E8300FF0E7F0E0900A3
:0E025400073083120313FD00FD0B2E29080056
:1002620083120313C801C701AD014B08CA006330F2
:10027200FD00FD0B3A29000000000608CB00C80A69
:100282004808C83C03184C29C801C70A47081E3C45
:1002920003184C2971294B082E06FF30031D00302C
:1002A200F1004A083106FF30031D0030F0007108EA
:1002B200F005031D5D2936294B082E06FF30031D6C
:1002C2000030F1004A083106FF30031D0030F00013
:1002D2007108F00503197129FF30AD008030CA00A2
:0202E200080012
:1002E40083120313C801C7016330FD00FD0B782995
:1002F400000000000608CB00C80A4808C83C0318E0
:100304008C29C801C70A4708053C03188C292030EA
:10031400CB00A7294B08003A031D9129CA014B08B9
:10032400003A031D962976294B08FF3A031D9B29A1
:10033400CA014B08FF3A031DA02976294B084A0637
:0C034400031DA52976294B08CA000800FB
:10035000831203134F0803178D0083168C130C149C
:0C03600083120C08F1007108F000080086
:10036C0083120313A401F001031EBE290130F00017
:10037C0070080319C3290512C829640005168516CF
:06038C00071487140800AD
:1003920083160313981690308312980083168717DA
:1003A200071383128C1ED8291A08F000D2290800DC
:1003B20031212D080319652B0730AC0072214B083F
:1003C200413A031DE529612A4B08423A031DEA29F5
:1003D200612A4B08433A031DEF29612A4B08443A2C
:1003E200031DF429612A4B08453A031DF929612AA4
:1003F2004B08463A031DFE29612A4B08473A031D62
:10040200032A612A4B08483A031D082A612A4B082D
:10041200493A031D0D2A612A4B084A3A031D122A42
:10042200612A4B084B3A031D172A612A4B084C3AA2
:10043200031D1C2A612A4B084D3A031D212A612AF9
:100442004B084E3A031D262A612A4B084F3A031DD8
:100452002B2A612A4B08503A031D302A612A4B0885
:10046200513A031D352A612A4B08523A031D3A2A92
:10047200612A4B08533A031D3F2A612A4B08543A1A
:10048200031D442A612A4B08553A031D492A612A51
:100492004B08563A031D4E2A612A4B08573A031D50
:1004A200532A612A4B08583A031D582A612A4B08DD
:1004B200593A031D5D2A612A4B085A3A031D682ADC
:1004C200AC0A2C08A03E84004B088000602B4B082D
:1004D200613A031D6D2AE92A4B08623A031D722A0A
:1004E200E92A4B08633A031D772AE92A4B08643A42
:1004F200031D7C2AE92A4B08653A031D812AE92A51
:100502004B08663A031D862AE92A4B08673A031DFF
:100512008B2AE92A4B08683A031D902AE92A4B08DC
:10052200693A031D952AE92A4B086A3A031D9A2A59
:10053200E92A4B086B3A031D9F2AE92A4B086C3AB9
:10054200031DA42AE92A4B086D3A031DA92AE92AA8
:100552004B086E3A031DAE2AE92A4B086F3A031D77
:10056200B32AE92A4B08703A031DB82AE92A4B0834
:10057200713A031DBD2AE92A4B08723A031DC22AA9
:10058200E92A4B08733A031DC72AE92A4B08743A31
:10059200031DCC2AE92A4B08753A031DD12AE92A00
:1005A2004B08763A031DD62AE92A4B08773A031DEF
:1005B200DB2AE92A4B08783A031DE02AE92A4B088C
:1005C200793A031DE52AE92A4B087A3A031DF02AF3
:1005D200AC0A2C08A03E84004B088000602B4B081C
:1005E200303A031DF52A262B4B08313A031DFA2A0D
:1005F200262B4B08323A031DFF2A262B4B08333A8F
:10060200031D042B262B4B08343A031D092B262BE2
:100612004B08353A031D0E2B262B4B08363A031D89
:10062200132B262B4B08373A031D182B262B4B086E
:10063200383A031D1D2B262B4B08393A031D222B5A
:10064200262B4B083A3A031D2D2BAC0A2C08A03E50
:1006520084004B088000602B4B08203A031D322B8C
:10066200592B4B08233A031D372B592B4B08283A99
:10067200031D3C2B592B4B08293A031D412B592BA7
:100682004B082A3A031D462B592B4B082D3A031DC2
:100692004B2B592B4B082E3A031D502B592B4B0831
:1006A2003D3A031D552B592B4B085F3A031D602B16
:1006B200AC0A2C08A03E84004B088000602B2C085A
:0A06C2005B3C031C652BDF290800D8
:1006CC00831203131A08F200981C6E2B18121816BA
:0A06DC007208F1007108F000080038
:1006E6000030831203138C1A0130F1007108F000F8
:0206F6000800FA
:1006F800FF3083120313B600FF30B700FF30B80095
:10070800FF309F01C0309F0483161F179F17831265
:040718001F140800A2
:10071C00FF3083120313A700FF30A800AB012A039C
:10072C00F2002B087202031CBD2B2B08A03E840088
:10073C000008A7060030A8060130A900271CAE2B24
:10074C00A80CA70CA8130130A706A030A806B12B43
:10075C00A80CA70CA8132908083A0319B72BA90A47
:10076C00A42B2B0872060319BD2BAB0A952B28085A
:08077C00BD002708BC000800C5
:10078400831603139818C82B0000C22B8312510838
:0407940099000800C0
:10079800831203139F01C0309F0483161F179F17EE
:1007A80083125108F000F00D7010F00D7010F00D6C
:1007B800701070089F041F142A211F151F1DE62B97
:1007C8000000E22B1F101E08F100F00183161E081E
:1007D80083127004D2007108D3000030D304520889
:0807E800F0005308F1000800C5
:1007F00083120313F801F9011030FC00710DF80D9C
:10080000F90D7408F8027508031C750FF902031836
:10081000102C7408F80775080318750FF9070310F2
:0A082000F00DF10DFC0BFE2B08009B
:10082A00DF308316031381000F308500FF30860006
:10083A008C3087000D309F0001308312B0001B30CE
:10084A00AF00CF01A8217008A6000130CF00A8216F
:10085A007008AE000230CF00A8217008B1002E083F
:10086A007006031D3C2CFF30AE008030B10004300E
:10087A00A500031307128712B621193083169900AF
:10088A001815C92183168C160C120B178B176400C6
:10089A00D921A40A283024020318542C64004D2CB0
:0208AA00552CCB
:02400E00462F3B
:00000001FF
