:02000000E92BEA
:10000800FF00030E8301C7000A08CA008A017008AE
:10001800A2007108A1007D08A0000408A3008B13AA
:1000280047237008013A031D06293A237008BF00C8
:100038003C08BB003D08BC003E08BD007008BE007F
:100048003C082606031D06293B088316A0008312D8
:100058003C088316A10002308312A8006223C50160
:100068003E083106031D06293D084006031D0629E2
:100078003B080F3A031D4228071087143B08063A2D
:10008800031D49280714871064003B08053A031D1F
:1000980006296400FF30C500851207148714C301C0
:1000A800C4010130A40024082502031C6E28502333
:1000B800D001A0237008C1007108C2007008C307EE
:1000C80071080318013EC4072408250603196E2881
:1000D800A40A57282508F400F5014308F00044084D
:1000E800F100CC237008C1007108C2004208BA00B0
:1000F8004108B400C301C4010130A400240825024A
:10010800031C9A2850230130D000A0237008C10096
:100118007108C2007008C30771080318013EC407BC
:100128002408250603199A28A40A82282508F40019
:10013800F5014308F0004408F100CC237008C10021
:100148007108C2004208B3004108B2000719AF287D
:100158000130B900B028B9018719B5280130B800B5
:10016800B628B8015E30A8008316A00183122608BD
:100178008316A10083123A088316A200831234085A
:100188008316A300831233088316A400831232084F
:100198008316A500831239088316A600831238082F
:1001A8008316A70083122E088316FC0083122B08DF
:1001B8008316FD00622307168716A4012803CF00C3
:1001C80024084F02031CF4282408A03E84000008D9
:1001D800D000962324084F060319F428A40AE2281D
:1001E8004008D00096233108D00096230430FC0044
:1001F800E430FD00FD0BFE28FC0BFE280000071272
:10020800871285168B172208F0002108F1002008B4
:10021800FD00230884004A088A00470E8300FF0E69
:040228007F0E09003C
:0E022C00073083120313FD00FD0B1A29080092
:10023A0083120313CD01CC014B08C6006330FD00C5
:10024A00FD0B2529000000000608CB00CD0A4D0849
:10025A00C83C03183729CD01CC0A4C081E3C0318A8
:10026A0037294C294B083006FF30031D0030F100B6
:10027A0046082F06FF30031D0030F0007108F00514
:10028A00031D48292129FF30AD008030C60008002F
:10029A0083120313CD01CC016330FD00FD0B5329FA
:1002AA00000000000608CB00CD0A4D08C83C031820
:1002BA006729CD01CC0A4C08053C03186729203070
:1002CA00CB0082294B08003A031D6C29C6014B0852
:1002DA00003A031D712951294B08FF3A031D76295B
:1002EA00C6014B08FF3A031D7B2951294B084606D4
:0C02FA00031D802951294B08C600080094
:10030600831203134E0803178D0083168C130C14E7
:0C03160083120C08F1007108F0000800D0
:0E0322008312031305168516071487140800AE
:10033000831603139816903083129800831687173C
:10034000071383128C1EA7291A08F000A1290800A0
:1003500083120313AD011D212D080319382B05123B
:100360000730AC004D214B08413A031DB829342A0F
:100370004B08423A031DBD29342A4B08433A031D5A
:10038000C229342A4B08443A031DC729342A4B0892
:10039000453A031DCC29342A4B08463A031DD1297E
:1003A000342A4B08473A031DD629342A4B08483AC9
:1003B000031DDB29342A4B08493A031DE029342A5E
:1003C0004B084A3A031DE529342A4B084B3A031DD2
:1003D000EA29342A4B084C3A031DEF29342A4B08EA
:1003E0004D3A031DF429342A4B084E3A031DF929CE
:1003F000342A4B084F3A031DFE29342A4B08503A41
:10040000031D032A342A4B08513A031D082A342AB3
:100410004B08523A031D0D2A342A4B08533A031D48
:10042000122A342A4B08543A031D172A342A4B083F
:10043000553A031D1C2A342A4B08563A031D212A1B
:10044000342A4B08573A031D262A342A4B08583AB7
:10045000031D2B2A342A4B08593A031D302A342A0B
:100460004B085A3A031D3B2AAC0A2C08A03E8400D4
:100470004B088000332B4B08613A031D402ABC2AED
:100480004B08623A031D452ABC2A4B08633A031DF8
:100490004A2ABC2A4B08643A031D4F2ABC2A4B083F
:1004A000653A031D542ABC2A4B08663A031D592A93
:1004B000BC2A4B08673A031D5E2ABC2A4B08683ADF
:1004C000031D632ABC2A4B08693A031D682ABC2A0B
:1004D0004B086A3A031D6D2ABC2A4B086B3A031D70
:1004E000722ABC2A4B086C3A031D772ABC2A4B0897
:1004F0006D3A031D7C2ABC2A4B086E3A031D812AE3
:10050000BC2A4B086F3A031D862ABC2A4B08703A56
:10051000031D8B2ABC2A4B08713A031D902ABC2A62
:100520004B08723A031D952ABC2A4B08733A031DE7
:100530009A2ABC2A4B08743A031D9F2ABC2A4B08EE
:10054000753A031DA42ABC2A4B08763A031DA92A32
:10055000BC2A4B08773A031DAE2ABC2A4B08783ACE
:10056000031DB32ABC2A4B08793A031DB82ABC2ABA
:100570004B087A3A031DC32AAC0A2C08A03E84001B
:100580004B088000332B4B08303A031DC82AF92A48
:100590004B08313A031DCD2AF92A4B08323A031D84
:1005A000D22AF92A4B08333A031DD72AF92A4B08D5
:1005B000343A031DDC2AF92A4B08353A031DE12A97
:1005C000F92A4B08363A031DE62AF92A4B08373A2E
:1005D000031DEB2AF92A4B08383A031DF02AF92AA1
:1005E0004B08393A031DF52AF92A4B083A3A031DFC
:1005F000002BAC0A2C08A03E84004B088000332B53
:100600004B08203A031D052B2C2B4B08233A031DC6
:100610000A2B2C2B4B08283A031D0F2B2C2B4B0895
:10062000293A031D142B2C2B4B082A3A031D192B96
:100630002C2B4B082D3A031D1E2B2C2B4B082E3A2E
:10064000031D232B2C2B4B083D3A031D282B2C2B51
:100650004B085F3A031D332BAC0A2C08A03E8400E4
:100660004B088000332B2C085B3C031C382BB22931
:040670000516080063
:10067400831203131A08F200981C422B181218163E
:0A0684007208F1007108F000080090
:10068E000030831203138C1A0130F1007108F00050
:02069E00080052
:1006A000FF3083120313B500FF30B600FF30B700F0
:1006B000FF309F01C0309F0483161F179F178312BE
:0406C0001F140800FB
:1006C400FF3083120313A900FF30AA00A4012803FA
:1006D400F20024087202031C912B2408A03E84001B
:1006E4000008A9060030AA060130A700291C822BA5
:1006F400AA0CA90CAA130130A906A030AA06852BBE
:10070400AA0CA90CAA132708083A03198B2BA70AC9
:10071400782B240872060319912BA40A692B2A0842
:08072400B1002908C000080023
:10072C008316031398189C2B0000962B83125008E9
:04073C009900080018
:10074000831203139F01C0309F0483161F179F1746
:1007500083125008F000F00D7010F00D7010F00DC5
:10076000701070089F041F1416211F151F1DBA2B2F
:100770000000B62B1F101E08F100F00183161E08A2
:1007800083127004D1007108D2000030D2045108E5
:08079000F0005208F10008001E
:1007980083120313F801F9011030FC00710DF80DF4
:1007A800F90D7408F8027508031C750FF90203188F
:1007B800E42B7408F80775080318750FF907031078
:0A07C800F00DF10DFC0BD22B080020
:1007D200FF308316031381000F308500FF3086003F
:1007E2008C3087000D309F0001308312AE001A302A
:1007F200AB00CE0183217008A6000130CE00832118
:100802007008B0000230CE0083217008AF003008BB
:100812007006031D102CFF30B0008030AF0008308E
:10082200A500A4012408A03E8400203080002408F2
:100832005F3A03191E2CA40A132C03130712871202
:1008420091211930831699001815982183168C1658
:100852000C120B178B1764006400A8212D2C302C6E
:02400E00462F3B
:00000001FF
